{
  "contractName": "BeerKeg_Sem_Dominic",
  "abi": [
    {
      "inputs": [],
      "stateMutability": "nonpayable",
      "type": "constructor"
    },
    {
      "inputs": [
        {
          "internalType": "address",
          "name": "",
          "type": "address"
        }
      ],
      "name": "beerKegBalance",
      "outputs": [
        {
          "internalType": "uint256",
          "name": "",
          "type": "uint256"
        }
      ],
      "stateMutability": "view",
      "type": "function",
      "constant": true
    },
    {
      "inputs": [],
      "name": "owner",
      "outputs": [
        {
          "internalType": "address",
          "name": "",
          "type": "address"
        }
      ],
      "stateMutability": "view",
      "type": "function",
      "constant": true
    },
    {
      "inputs": [],
      "name": "getKegBalance",
      "outputs": [
        {
          "internalType": "uint256",
          "name": "",
          "type": "uint256"
        }
      ],
      "stateMutability": "view",
      "type": "function",
      "constant": true
    },
    {
      "inputs": [
        {
          "internalType": "uint256",
          "name": "liters",
          "type": "uint256"
        }
      ],
      "name": "changeKeg",
      "outputs": [],
      "stateMutability": "nonpayable",
      "type": "function"
    },
    {
      "inputs": [
        {
          "internalType": "uint256",
          "name": "liters",
          "type": "uint256"
        }
      ],
      "name": "purchaseSmallBeer",
      "outputs": [],
      "stateMutability": "payable",
      "type": "function",
      "payable": true
    },
    {
      "inputs": [
        {
          "internalType": "uint256",
          "name": "liters",
          "type": "uint256"
        }
      ],
      "name": "purchaseLargeBeer",
      "outputs": [],
      "stateMutability": "payable",
      "type": "function",
      "payable": true
    }
  ],
  "bytecode": "0x608060405234801561001057600080fd5b50336000806101000a81548173ffffffffffffffffffffffffffffffffffffffff021916908373ffffffffffffffffffffffffffffffffffffffff1602179055506032600160003073ffffffffffffffffffffffffffffffffffffffff1673ffffffffffffffffffffffffffffffffffffffff16815260200190815260200160002081905550610b53806100a56000396000f3fe6080604052600436106100555760003560e01c80638da5cb5b1461005a578063c844bd2114610085578063ca64b950146100a1578063da941c2c146100cc578063efe7614c146100f5578063fdd724ef14610111575b600080fd5b34801561006657600080fd5b5061006f61014e565b60405161007c9190610607565b60405180910390f35b61009f600480360381019061009a919061065d565b610172565b005b3480156100ad57600080fd5b506100b66102f9565b6040516100c39190610699565b60405180910390f35b3480156100d857600080fd5b506100f360048036038101906100ee919061065d565b610340565b005b61010f600480360381019061010a919061065d565b610427565b005b34801561011d57600080fd5b50610138600480360381019061013391906106e0565b6105ae565b6040516101459190610699565b60405180910390f35b60008054906101000a900473ffffffffffffffffffffffffffffffffffffffff1681565b670429d069189e000081610186919061073c565b3410156101c8576040517f08c379a00000000000000000000000000000000000000000000000000000000081526004016101bf90610801565b60405180910390fd5b80600160003073ffffffffffffffffffffffffffffffffffffffff1673ffffffffffffffffffffffffffffffffffffffff16815260200190815260200160002054101561024a576040517f08c379a0000000000000000000000000000000000000000000000000000000008152600401610241906108b9565b60405180910390fd5b80600160003073ffffffffffffffffffffffffffffffffffffffff1673ffffffffffffffffffffffffffffffffffffffff168152602001908152602001600020600082825461029991906108d9565b9250508190555080600160003373ffffffffffffffffffffffffffffffffffffffff1673ffffffffffffffffffffffffffffffffffffffff16815260200190815260200160002060008282546102ef919061090d565b9250508190555050565b6000600160003073ffffffffffffffffffffffffffffffffffffffff1673ffffffffffffffffffffffffffffffffffffffff16815260200190815260200160002054905090565b60008054906101000a900473ffffffffffffffffffffffffffffffffffffffff1673ffffffffffffffffffffffffffffffffffffffff163373ffffffffffffffffffffffffffffffffffffffff16146103ce576040517f08c379a00000000000000000000000000000000000000000000000000000000081526004016103c5906109b3565b60405180910390fd5b80600160003073ffffffffffffffffffffffffffffffffffffffff1673ffffffffffffffffffffffffffffffffffffffff168152602001908152602001600020600082825461041d919061090d565b9250508190555050565b6706f05b59d3b200008161043b919061073c565b34101561047d576040517f08c379a000000000000000000000000000000000000000000000000000000000815260040161047490610a45565b60405180910390fd5b80600160003073ffffffffffffffffffffffffffffffffffffffff1673ffffffffffffffffffffffffffffffffffffffff1681526020019081526020016000205410156104ff576040517f08c379a00000000000000000000000000000000000000000000000000000000081526004016104f690610afd565b60405180910390fd5b80600160003073ffffffffffffffffffffffffffffffffffffffff1673ffffffffffffffffffffffffffffffffffffffff168152602001908152602001600020600082825461054e91906108d9565b9250508190555080600160003373ffffffffffffffffffffffffffffffffffffffff1673ffffffffffffffffffffffffffffffffffffffff16815260200190815260200160002060008282546105a4919061090d565b9250508190555050565b60016020528060005260406000206000915090505481565b600073ffffffffffffffffffffffffffffffffffffffff82169050919050565b60006105f1826105c6565b9050919050565b610601816105e6565b82525050565b600060208201905061061c60008301846105f8565b92915050565b600080fd5b6000819050919050565b61063a81610627565b811461064557600080fd5b50565b60008135905061065781610631565b92915050565b60006020828403121561067357610672610622565b5b600061068184828501610648565b91505092915050565b61069381610627565b82525050565b60006020820190506106ae600083018461068a565b92915050565b6106bd816105e6565b81146106c857600080fd5b50565b6000813590506106da816106b4565b92915050565b6000602082840312156106f6576106f5610622565b5b6000610704848285016106cb565b91505092915050565b7f4e487b7100000000000000000000000000000000000000000000000000000000600052601160045260246000fd5b600061074782610627565b915061075283610627565b925082820261076081610627565b915082820484148315176107775761077661070d565b5b5092915050565b600082825260208201905092915050565b7f74686520707269636520697320302e3320657468657220666f72206120736d6160008201527f6c6c206265657200000000000000000000000000000000000000000000000000602082015250565b60006107eb60278361077e565b91506107f68261078f565b604082019050919050565b6000602082019050818103600083015261081a816107de565b9050919050565b7f546865206b656720697320616c6d6f737420656d70747920616e64206861736e60008201527f277420676f7420656e6f7567682062656572206c65667420666f72206120667560208201527f6c6c20736d616c6c206265657200000000000000000000000000000000000000604082015250565b60006108a3604d8361077e565b91506108ae82610821565b606082019050919050565b600060208201905081810360008301526108d281610896565b9050919050565b60006108e482610627565b91506108ef83610627565b92508282039050818111156109075761090661070d565b5b92915050565b600061091882610627565b915061092383610627565b925082820190508082111561093b5761093a61070d565b5b92915050565b7f796f7520617265206e6f7420616c6c6f77656420746f2066696c6c207570207460008201527f6865206b6567203a2f0000000000000000000000000000000000000000000000602082015250565b600061099d60298361077e565b91506109a882610941565b604082019050919050565b600060208201905081810360008301526109cc81610990565b9050919050565b7f74686520707269636520697320302e3520657468657220666f722061206c617260008201527f6765206265657200000000000000000000000000000000000000000000000000602082015250565b6000610a2f60278361077e565b9150610a3a826109d3565b604082019050919050565b60006020820190508181036000830152610a5e81610a22565b9050919050565b7f546865206b656720697320616c6d6f737420656d70747920616e64206861736e60008201527f277420676f7420656e6f7567682062656572206c65667420666f72206120667560208201527f6c6c206c61726765206265657200000000000000000000000000000000000000604082015250565b6000610ae7604d8361077e565b9150610af282610a65565b606082019050919050565b60006020820190508181036000830152610b1681610ada565b905091905056fea2646970667358221220c0424f7170809b9126d32b0df67d9d908a974372df87d1e6df388db94452b84864736f6c63430008110033",
  "immutableReferences": {},
  "source": "// SPDX-License-Identifier: MIT\npragma solidity >=0.4.22 <0.9.0;\n\ncontract BeerKeg_Sem_Dominic {\n    // Define some state variables\n    address public owner;\n    mapping (address => uint) public beerKegBalance;\n\n    constructor() {\n        owner = msg.sender;\n        //a keg is 50 Liters\n        beerKegBalance[address(this)] = 50;\n    }\n\n    // This function is called whenever someone wants to read how much beer there still is in the keg\n    function getKegBalance() public view returns (uint) {\n        return beerKegBalance[address(this)];\n    }\n\n    // This function is called whenever someone wants to set a new message\n    function changeKeg(uint liters) public {\n        require(msg.sender == owner, \"you are not allowed to fill up the keg :/\");\n        beerKegBalance[address(this)] += liters;\n    }\n\n    function purchaseSmallBeer(uint liters) public payable {\n        require(msg.value >= liters * 0.3 ether, \"the price is 0.3 ether for a small beer\");\n        require(beerKegBalance[address(this)] >= liters, \"The keg is almost empty and hasn't got enough beer left for a full small beer\");\n        beerKegBalance[address(this)] -= liters;\n        beerKegBalance[msg.sender] += liters;\n    }\n\n    function purchaseLargeBeer(uint liters) public payable {\n        require(msg.value >= liters * 0.5 ether, \"the price is 0.5 ether for a large beer\");\n        require(beerKegBalance[address(this)] >= liters, \"The keg is almost empty and hasn't got enough beer left for a full large beer\");\n        beerKegBalance[address(this)] -= liters;\n        beerKegBalance[msg.sender] += liters;\n    }\n}\n",
  "sourcePath": "C:\\Users\\semso\\Desktop\\BlockchainSem\\contracts\\BeerKeg_Sem_Dominic.sol",
  "compiler": {
    "name": "solc",
    "version": "0.8.17+commit.8df45f5f.Emscripten.clang"
  },
  "schemaVersion": "3.4.11",
  "updatedAt": "2022-12-15T12:39:54.947Z",
  "networkType": "ethereum",
  "devdoc": {
    "kind": "dev",
    "methods": {},
    "version": 1
  },
  "userdoc": {
    "kind": "user",
    "methods": {},
    "version": 1
  }
}